{
    "contractName": "DSCEngine",
    "abi": [
        {
            "inputs": [
                {
                    "internalType": "address[]",
                    "name": "validCollateral",
                    "type": "address[]"
                },
                {
                    "internalType": "address[]",
                    "name": "priceFeeds",
                    "type": "address[]"
                }
            ],
            "stateMutability": "nonpayable",
            "type": "constructor"
        },
        {
            "inputs": [],
            "name": "DSCEngine__InvalidCollateralProvided",
            "type": "error"
        },
        {
            "inputs": [],
            "name": "DSCEngine__NeedsMoreThanZero",
            "type": "error"
        },
        {
            "inputs": [],
            "name": "DSCEngine__RequireAtleastOneFormOfCollateral",
            "type": "error"
        },
        {
            "inputs": [],
            "name": "DSCEngine__TokenAddressesAndPriceFeedAddressesMustBeSameLength",
            "type": "error"
        },
        {
            "inputs": [],
            "name": "ReentrancyGuardReentrantCall",
            "type": "error"
        },
        {
            "anonymous": false,
            "inputs": [
                {
                    "indexed": true,
                    "internalType": "address",
                    "name": "user",
                    "type": "address"
                },
                {
                    "indexed": true,
                    "internalType": "address",
                    "name": "token",
                    "type": "address"
                },
                {
                    "indexed": true,
                    "internalType": "uint256",
                    "name": "amount",
                    "type": "uint256"
                }
            ],
            "name": "DSCEngine__CollateralDeposited",
            "type": "event"
        },
        {
            "anonymous": false,
            "inputs": [
                {
                    "indexed": true,
                    "internalType": "address",
                    "name": "token",
                    "type": "address"
                },
                {
                    "indexed": false,
                    "internalType": "address",
                    "name": "priceFeed",
                    "type": "address"
                }
            ],
            "name": "DSCEngine__UpdatedValidCollateral",
            "type": "event"
        },
        {
            "inputs": [],
            "name": "burnDsc",
            "outputs": [],
            "stateMutability": "nonpayable",
            "type": "function"
        },
        {
            "inputs": [
                {
                    "internalType": "address",
                    "name": "tokenCollateralAddress",
                    "type": "address"
                },
                {
                    "internalType": "uint256",
                    "name": "collateralAmount",
                    "type": "uint256"
                }
            ],
            "name": "depositCollateral",
            "outputs": [],
            "stateMutability": "nonpayable",
            "type": "function"
        },
        {
            "inputs": [],
            "name": "depositCollateralAndMintDsc",
            "outputs": [],
            "stateMutability": "nonpayable",
            "type": "function"
        },
        {
            "inputs": [],
            "name": "getHealthFactor",
            "outputs": [],
            "stateMutability": "view",
            "type": "function"
        },
        {
            "inputs": [],
            "name": "liquidate",
            "outputs": [],
            "stateMutability": "nonpayable",
            "type": "function"
        },
        {
            "inputs": [],
            "name": "mintDsc",
            "outputs": [],
            "stateMutability": "nonpayable",
            "type": "function"
        },
        {
            "inputs": [],
            "name": "redeemCollateral",
            "outputs": [],
            "stateMutability": "nonpayable",
            "type": "function"
        },
        {
            "inputs": [],
            "name": "redeemCollateralForDsc",
            "outputs": [],
            "stateMutability": "nonpayable",
            "type": "function"
        }
    ],
    "bytecode": "608060405234801561000f575f80fd5b5060405161059a38038061059a83398101604081905261002e91610283565b60015f819055508151805f036100575760405163cb1d3f7d60e01b815260040160405180910390fd5b815183511461007957604051635ae2e09360e11b815260040160405180910390fd5b5f83511161009a5760405163b70051e360e01b815260040160405180910390fd5b5f5b83518110156101a8578281815181106100b7576100b76102e8565b602002602001015160015f8684815181106100d4576100d46102e8565b60200260200101516001600160a01b03166001600160a01b031681526020019081526020015f205f6101000a8154816001600160a01b0302191690836001600160a01b03160217905550838181518110610130576101306102e8565b60200260200101516001600160a01b03167f2d2468590a750a77d29a90c13acbc0c3019d25b05a070bc00eadf1caadf4232e848381518110610174576101746102e8565b602002602001015160405161019891906001600160a01b0391909116815260200190565b60405180910390a260010161009c565b505050506102fc565b634e487b7160e01b5f52604160045260245ffd5b80516001600160a01b03811681146101db575f80fd5b919050565b5f82601f8301126101ef575f80fd5b81516001600160401b03811115610208576102086101b1565b604051600582901b90603f8201601f191681016001600160401b0381118282101715610236576102366101b1565b604052918252602081850181019290810186841115610253575f80fd5b6020860192505b838310156102795761026b836101c5565b81526020928301920161025a565b5095945050505050565b5f8060408385031215610294575f80fd5b82516001600160401b038111156102a9575f80fd5b6102b5858286016101e0565b602085015190935090506001600160401b038111156102d2575f80fd5b6102de858286016101e0565b9150509250929050565b634e487b7160e01b5f52603260045260245ffd5b610291806103095f395ff3fe608060405234801561000f575f80fd5b5060043610610085575f3560e01c8063a5f352b711610058578063a5f352b714610089578063a653447014610089578063ca5ba61f14610089578063ffde1fba14610089575f80fd5b80631e2e15e41461008957806328a07025146100895780639e29755414610089578063a5d5db0c1461008b575b5f80fd5b005b6100896100993660046101db565b80805f036100ba5760405163cb1d3f7d60e01b815260040160405180910390fd5b6100c26101b3565b6001600160a01b038381165f90815260016020526040902054166100f957604051633e21b03560e11b815260040160405180910390fd5b335f9081526002602090815260408083206001600160a01b03871684529091528120805484929061012b908490610210565b90915550506040516323b872dd60e01b8152336004820152306024820152604481018390526001600160a01b038416906323b872dd906064016020604051808303815f875af1158015610180573d5f803e3d5ffd5b505050506040513d601f19601f820116820180604052508101906101a49190610235565b506101ae60015f55565b505050565b60025f54036101d557604051633ee5aeb560e01b815260040160405180910390fd5b60025f55565b5f80604083850312156101ec575f80fd5b82356001600160a01b0381168114610202575f80fd5b946020939093013593505050565b8082018082111561022f57634e487b7160e01b5f52601160045260245ffd5b92915050565b5f60208284031215610245575f80fd5b81518015158114610254575f80fd5b939250505056fea26469706673582212205ee624e91e32a8e8590369fdf62af4913695b7cdaf8d4849ba8f88169711f29f64736f6c634300081a0033",
    "sourcePath": "/Users/raman/Documents/Crypto/Foundry/FoundryF23/foundry-defi-stablecoin-f23/src/DSCEngine.sol",
    "compiler": {
        "name": "solc",
        "version": "0.8.26+commit.8a97fa7a"
    },
    "functionHashes": {
        "burnDsc()": "ffde1fba",
        "depositCollateral(address,uint256)": "a5d5db0c",
        "depositCollateralAndMintDsc()": "1e2e15e4",
        "getHealthFactor()": "a5f352b7",
        "liquidate()": "28a07025",
        "mintDsc()": "ca5ba61f",
        "redeemCollateral()": "a6534470",
        "redeemCollateralForDsc()": "9e297554"
    },
    "gasEstimates": {
        "creation": {
            "codeDepositCost": "131400",
            "executionCost": "infinite",
            "totalCost": "infinite"
        },
        "external": {
            "burnDsc()": "185",
            "depositCollateral(address,uint256)": "infinite",
            "depositCollateralAndMintDsc()": "120",
            "getHealthFactor()": "119",
            "liquidate()": "142",
            "mintDsc()": "163",
            "redeemCollateral()": "141",
            "redeemCollateralForDsc()": "164"
        }
    }
}