{
    "contractName": "DSCEngine",
    "abi": [
        {
            "inputs": [
                {
                    "internalType": "address[]",
                    "name": "validCollateral",
                    "type": "address[]"
                },
                {
                    "internalType": "address[]",
                    "name": "priceFeeds",
                    "type": "address[]"
                },
                {
                    "internalType": "address",
                    "name": "dscAddress",
                    "type": "address"
                }
            ],
            "stateMutability": "nonpayable",
            "type": "constructor"
        },
        {
            "inputs": [
                {
                    "internalType": "uint256",
                    "name": "healthFactor",
                    "type": "uint256"
                }
            ],
            "name": "DSCEngine__BreaksHealthFactor",
            "type": "error"
        },
        {
            "inputs": [],
            "name": "DSCEngine__HealthFactorNotImproved",
            "type": "error"
        },
        {
            "inputs": [],
            "name": "DSCEngine__HealthFactorOk",
            "type": "error"
        },
        {
            "inputs": [],
            "name": "DSCEngine__InvalidCollateralProvided",
            "type": "error"
        },
        {
            "inputs": [],
            "name": "DSCEngine__MintFailed",
            "type": "error"
        },
        {
            "inputs": [],
            "name": "DSCEngine__NeedsMoreThanZero",
            "type": "error"
        },
        {
            "inputs": [],
            "name": "DSCEngine__RequireAtleastOneFormOfCollateral",
            "type": "error"
        },
        {
            "inputs": [],
            "name": "DSCEngine__TokenAddressesAndPriceFeedAddressesMustBeSameLength",
            "type": "error"
        },
        {
            "inputs": [],
            "name": "DSCEngine__TransferFailed",
            "type": "error"
        },
        {
            "inputs": [],
            "name": "ReentrancyGuardReentrantCall",
            "type": "error"
        },
        {
            "anonymous": false,
            "inputs": [
                {
                    "indexed": true,
                    "internalType": "address",
                    "name": "user",
                    "type": "address"
                },
                {
                    "indexed": true,
                    "internalType": "address",
                    "name": "token",
                    "type": "address"
                },
                {
                    "indexed": true,
                    "internalType": "uint256",
                    "name": "amount",
                    "type": "uint256"
                }
            ],
            "name": "DSCEngine__CollateralDeposited",
            "type": "event"
        },
        {
            "anonymous": false,
            "inputs": [
                {
                    "indexed": true,
                    "internalType": "address",
                    "name": "redeemedFrom",
                    "type": "address"
                },
                {
                    "indexed": true,
                    "internalType": "address",
                    "name": "redeemedTo",
                    "type": "address"
                },
                {
                    "indexed": true,
                    "internalType": "address",
                    "name": "collateralToken",
                    "type": "address"
                },
                {
                    "indexed": false,
                    "internalType": "uint256",
                    "name": "amount",
                    "type": "uint256"
                }
            ],
            "name": "DSCEngine__CollateralRedeemed",
            "type": "event"
        },
        {
            "anonymous": false,
            "inputs": [
                {
                    "indexed": true,
                    "internalType": "address",
                    "name": "token",
                    "type": "address"
                },
                {
                    "indexed": false,
                    "internalType": "address",
                    "name": "priceFeed",
                    "type": "address"
                }
            ],
            "name": "DSCEngine__UpdatedValidCollateral",
            "type": "event"
        },
        {
            "inputs": [
                {
                    "internalType": "uint256",
                    "name": "amount",
                    "type": "uint256"
                }
            ],
            "name": "burnDsc",
            "outputs": [],
            "stateMutability": "nonpayable",
            "type": "function"
        },
        {
            "inputs": [
                {
                    "internalType": "address",
                    "name": "tokenCollateralAddress",
                    "type": "address"
                },
                {
                    "internalType": "uint256",
                    "name": "collateralAmount",
                    "type": "uint256"
                }
            ],
            "name": "depositCollateral",
            "outputs": [],
            "stateMutability": "nonpayable",
            "type": "function"
        },
        {
            "inputs": [
                {
                    "internalType": "address",
                    "name": "tokenCollateralAddress",
                    "type": "address"
                },
                {
                    "internalType": "uint256",
                    "name": "collateralAmount",
                    "type": "uint256"
                },
                {
                    "internalType": "uint256",
                    "name": "amountDscToMint",
                    "type": "uint256"
                }
            ],
            "name": "depositCollateralAndMintDsc",
            "outputs": [],
            "stateMutability": "nonpayable",
            "type": "function"
        },
        {
            "inputs": [
                {
                    "internalType": "address",
                    "name": "user",
                    "type": "address"
                }
            ],
            "name": "getAccountCollateralValue",
            "outputs": [
                {
                    "internalType": "uint256",
                    "name": "totalCollateralValueUsd",
                    "type": "uint256"
                }
            ],
            "stateMutability": "view",
            "type": "function"
        },
        {
            "inputs": [],
            "name": "getHealthFactor",
            "outputs": [],
            "stateMutability": "view",
            "type": "function"
        },
        {
            "inputs": [
                {
                    "internalType": "address",
                    "name": "token",
                    "type": "address"
                },
                {
                    "internalType": "uint256",
                    "name": "usdAmountInWei",
                    "type": "uint256"
                }
            ],
            "name": "getTokenAmountFromUsd",
            "outputs": [
                {
                    "internalType": "uint256",
                    "name": "",
                    "type": "uint256"
                }
            ],
            "stateMutability": "view",
            "type": "function"
        },
        {
            "inputs": [
                {
                    "internalType": "address",
                    "name": "token",
                    "type": "address"
                },
                {
                    "internalType": "uint256",
                    "name": "amount",
                    "type": "uint256"
                }
            ],
            "name": "getUsdValue",
            "outputs": [
                {
                    "internalType": "uint256",
                    "name": "usdValue",
                    "type": "uint256"
                }
            ],
            "stateMutability": "view",
            "type": "function"
        },
        {
            "inputs": [
                {
                    "internalType": "address",
                    "name": "collateral",
                    "type": "address"
                },
                {
                    "internalType": "address",
                    "name": "user",
                    "type": "address"
                },
                {
                    "internalType": "uint256",
                    "name": "debtToCover",
                    "type": "uint256"
                }
            ],
            "name": "liquidate",
            "outputs": [],
            "stateMutability": "nonpayable",
            "type": "function"
        },
        {
            "inputs": [
                {
                    "internalType": "uint256",
                    "name": "amountDscToMint",
                    "type": "uint256"
                }
            ],
            "name": "mintDsc",
            "outputs": [],
            "stateMutability": "nonpayable",
            "type": "function"
        },
        {
            "inputs": [
                {
                    "internalType": "address",
                    "name": "collateralToken",
                    "type": "address"
                },
                {
                    "internalType": "uint256",
                    "name": "collateralAmount",
                    "type": "uint256"
                }
            ],
            "name": "redeemCollateral",
            "outputs": [],
            "stateMutability": "nonpayable",
            "type": "function"
        },
        {
            "inputs": [
                {
                    "internalType": "address",
                    "name": "collateralToken",
                    "type": "address"
                },
                {
                    "internalType": "uint256",
                    "name": "collateralAmount",
                    "type": "uint256"
                },
                {
                    "internalType": "uint256",
                    "name": "amountDscToBurn",
                    "type": "uint256"
                }
            ],
            "name": "redeemCollateralForDsc",
            "outputs": [],
            "stateMutability": "nonpayable",
            "type": "function"
        }
    ],
    "bytecode": "60a060405234801561000f575f80fd5b5060405161109238038061109283398101604081905261002e916102e0565b60015f819055508251805f036100575760405163cb1d3f7d60e01b815260040160405180910390fd5b825184511461007957604051635ae2e09360e11b815260040160405180910390fd5b5f84511161009a5760405163b70051e360e01b815260040160405180910390fd5b5f5b84518110156101f8578381815181106100b7576100b7610354565b602002602001015160015f8784815181106100d4576100d4610354565b60200260200101516001600160a01b03166001600160a01b031681526020019081526020015f205f6101000a8154816001600160a01b0302191690836001600160a01b03160217905550600485828151811061013257610132610354565b60209081029190910181015182546001810184555f938452919092200180546001600160a01b0319166001600160a01b03909216919091179055845185908290811061018057610180610354565b60200260200101516001600160a01b03167f2d2468590a750a77d29a90c13acbc0c3019d25b05a070bc00eadf1caadf4232e8583815181106101c4576101c4610354565b60200260200101516040516101e891906001600160a01b0391909116815260200190565b60405180910390a260010161009c565b50506001600160a01b0316608052506103689050565b634e487b7160e01b5f52604160045260245ffd5b80516001600160a01b0381168114610238575f80fd5b919050565b5f82601f83011261024c575f80fd5b81516001600160401b038111156102655761026561020e565b604051600582901b90603f8201601f191681016001600160401b03811182821017156102935761029361020e565b6040529182526020818501810192908101868411156102b0575f80fd5b6020860192505b838310156102d6576102c883610222565b8152602092830192016102b7565b5095945050505050565b5f805f606084860312156102f2575f80fd5b83516001600160401b03811115610307575f80fd5b6103138682870161023d565b602086015190945090506001600160401b03811115610330575f80fd5b61033c8682870161023d565b92505061034b60408501610222565b90509250925092565b634e487b7160e01b5f52603260045260245ffd5b608051610d0461038e5f395f8181610678015281816109740152610a160152610d045ff3fe608060405234801561000f575f80fd5b50600436106100a6575f3560e01c8063afea2e481161006e578063afea2e481461010a578063c660d1121461011d578063c9b7c32714610130578063e90db8a314610143578063f419ea9c14610156578063f687660814610169575f80fd5b806326c01303146100aa5780637d1a4450146100bf5780639acd81b3146100e4578063a5d5db0c146100f7578063a5f352b7146100bd575b5f80fd5b6100bd6100b8366004610afb565b61017c565b005b6100d26100cd366004610b35565b610264565b60405190815260200160405180910390f35b6100bd6100f2366004610b55565b6102e5565b6100bd610105366004610b55565b610331565b6100d2610118366004610b55565b6104a1565b6100d261012b366004610b55565b61055c565b6100bd61013e366004610b7d565b610604565b6100bd610151366004610b94565b610718565b6100bd610164366004610b94565b61072b565b6100bd610177366004610b7d565b61073e565b80805f0361019d5760405163cb1d3f7d60e01b815260040160405180910390fd5b6101a5610773565b5f6101af8461079b565b9050670de0b6b3a764000081106101d95760405163032c072f60e41b815260040160405180910390fd5b5f6101e486856104a1565b90505f60646101f4600a84610bd8565b6101fe9190610bef565b90505f61020b8284610c0e565b9050610219888289336107ec565b61022486883361091a565b5f61022e8861079b565b9050848111610250576040516303e141b160e51b815260040160405180910390fd5b505050505061025e60015f55565b50505050565b5f805b6004548110156102df575f6004828154811061028557610285610c21565b5f9182526020808320909101546001600160a01b0387811684526002835260408085209190921680855292529091205490915080156102d5576102c8828261055c565b6102d29085610c0e565b93505b5050600101610267565b50919050565b80805f036103065760405163cb1d3f7d60e01b815260040160405180910390fd5b61030e610773565b61031a838333336107ec565b61032333610a7b565b61032c60015f55565b505050565b80805f036103525760405163cb1d3f7d60e01b815260040160405180910390fd5b6001600160a01b038084165f9081526001602052604090205484911661038b57604051633e21b03560e11b815260040160405180910390fd5b610393610773565b335f9081526002602090815260408083206001600160a01b0388168452909152812080548592906103c5908490610c0e565b909155505060405183906001600160a01b0386169033907f23bbcaa7e76fa787630988798d121123a98b21ca858cb44b28ace423f9bb5d06905f90a46040516323b872dd60e01b8152336004820152306024820152604481018490525f906001600160a01b038616906323b872dd906064016020604051808303815f875af1158015610453573d5f803e3d5ffd5b505050506040513d601f19601f820116820180604052508101906104779190610c35565b90508061049757604051634dc34d1760e01b815260040160405180910390fd5b5061025e60015f55565b6001600160a01b038083165f90815260016020526040808220548151633fabe5a360e21b81529151929316918391839163feaf968c9160048082019260a0929091908290030181865afa1580156104fa573d5f803e3d5ffd5b505050506040513d601f19601f8201168201806040525081019061051e9190610c6d565b5050509150506402540be400816105359190610bd8565b610547670de0b6b3a764000086610bd8565b6105519190610bef565b925050505b92915050565b6001600160a01b038083165f90815260016020526040808220548151633fabe5a360e21b81529151929316918391839163feaf968c9160048082019260a0929091908290030181865afa1580156105b5573d5f803e3d5ffd5b505050506040513d601f19601f820116820180604052508101906105d99190610c6d565b505050915050670de0b6b3a7640000846402540be400836105fa9190610bd8565b6105479190610bd8565b80805f036106255760405163cb1d3f7d60e01b815260040160405180910390fd5b61062d610773565b335f908152600360205260408120805484929061064b908490610c0e565b9091555061065a905033610a7b565b6040516340c10f1960e01b8152336004820152602481018390525f907f00000000000000000000000000000000000000000000000000000000000000006001600160a01b0316906340c10f19906044016020604051808303815f875af11580156106c6573d5f803e3d5ffd5b505050506040513d601f19601f820116820180604052508101906106ea9190610c35565b90508061070a576040516330eb0fc960e01b815260040160405180910390fd5b5061071460015f55565b5050565b6107228383610331565b61032c81610604565b6107348161073e565b61032c83836102e5565b80805f0361075f5760405163cb1d3f7d60e01b815260040160405180910390fd5b61076a82333361091a565b61071433610a7b565b60025f540361079557604051633ee5aeb560e01b815260040160405180910390fd5b60025f55565b5f805f6107a784610ab7565b90925090505f60646107ba603284610bd8565b6107c49190610bef565b9050826107d9670de0b6b3a764000083610bd8565b6107e39190610bef565b95945050505050565b6001600160a01b038083165f90815260026020908152604080832093881683529290529081208054859290610822908490610cbb565b92505081905550836001600160a01b0316816001600160a01b0316836001600160a01b03167f892671dfa90c91613766adad4f0503f55c6618bc01a91ac4b9e9b0c050599c248660405161087891815260200190565b60405180910390a460405163a9059cbb60e01b81526001600160a01b038281166004830152602482018590525f919086169063a9059cbb906044016020604051808303815f875af11580156108cf573d5f803e3d5ffd5b505050506040513d601f19601f820116820180604052508101906108f39190610c35565b90508061091357604051634dc34d1760e01b815260040160405180910390fd5b5050505050565b6001600160a01b0382165f9081526003602052604081208054859290610941908490610cbb565b90915550506040516323b872dd60e01b81526001600160a01b038281166004830152306024830152604482018590525f917f0000000000000000000000000000000000000000000000000000000000000000909116906323b872dd906064016020604051808303815f875af11580156109bc573d5f803e3d5ffd5b505050506040513d601f19601f820116820180604052508101906109e09190610c35565b905080610a0057604051634dc34d1760e01b815260040160405180910390fd5b604051630852cd8d60e31b8152600481018590527f00000000000000000000000000000000000000000000000000000000000000006001600160a01b0316906342966c68906024015f604051808303815f87803b158015610a5f575f80fd5b505af1158015610a71573d5f803e3d5ffd5b5050505050505050565b5f610a858261079b565b9050670de0b6b3a76400008110156107145760405163e580cc6160e01b81526004810182905260240160405180910390fd5b6001600160a01b0381165f9081526003602052604081205490610ad983610264565b9050915091565b80356001600160a01b0381168114610af6575f80fd5b919050565b5f805f60608486031215610b0d575f80fd5b610b1684610ae0565b9250610b2460208501610ae0565b929592945050506040919091013590565b5f60208284031215610b45575f80fd5b610b4e82610ae0565b9392505050565b5f8060408385031215610b66575f80fd5b610b6f83610ae0565b946020939093013593505050565b5f60208284031215610b8d575f80fd5b5035919050565b5f805f60608486031215610ba6575f80fd5b610baf84610ae0565b95602085013595506040909401359392505050565b634e487b7160e01b5f52601160045260245ffd5b808202811582820484141761055657610556610bc4565b5f82610c0957634e487b7160e01b5f52601260045260245ffd5b500490565b8082018082111561055657610556610bc4565b634e487b7160e01b5f52603260045260245ffd5b5f60208284031215610c45575f80fd5b81518015158114610b4e575f80fd5b805169ffffffffffffffffffff81168114610af6575f80fd5b5f805f805f60a08688031215610c81575f80fd5b610c8a86610c54565b60208701516040880151606089015192975090955093509150610caf60808701610c54565b90509295509295909350565b8181038181111561055657610556610bc456fea2646970667358221220a7329b2452a685b9b7224c0d68612fc468c2a2c68ae29a56f5a3d8114caf05c764736f6c634300081a0033",
    "sourcePath": "/Users/raman/Documents/Crypto/Foundry/FoundryF23/foundry-defi-stablecoin-f23/src/DSCEngine.sol",
    "compiler": {
        "name": "solc",
        "version": "0.8.26+commit.8a97fa7a"
    },
    "functionHashes": {
        "burnDsc(uint256)": "f6876608",
        "depositCollateral(address,uint256)": "a5d5db0c",
        "depositCollateralAndMintDsc(address,uint256,uint256)": "e90db8a3",
        "getAccountCollateralValue(address)": "7d1a4450",
        "getHealthFactor()": "a5f352b7",
        "getTokenAmountFromUsd(address,uint256)": "afea2e48",
        "getUsdValue(address,uint256)": "c660d112",
        "liquidate(address,address,uint256)": "26c01303",
        "mintDsc(uint256)": "c9b7c327",
        "redeemCollateral(address,uint256)": "9acd81b3",
        "redeemCollateralForDsc(address,uint256,uint256)": "f419ea9c"
    },
    "gasEstimates": {
        "creation": {
            "codeDepositCost": "666400",
            "executionCost": "infinite",
            "totalCost": "infinite"
        },
        "external": {
            "burnDsc(uint256)": "infinite",
            "depositCollateral(address,uint256)": "infinite",
            "depositCollateralAndMintDsc(address,uint256,uint256)": "infinite",
            "getAccountCollateralValue(address)": "infinite",
            "getHealthFactor()": "208",
            "getTokenAmountFromUsd(address,uint256)": "infinite",
            "getUsdValue(address,uint256)": "infinite",
            "liquidate(address,address,uint256)": "infinite",
            "mintDsc(uint256)": "infinite",
            "redeemCollateral(address,uint256)": "infinite",
            "redeemCollateralForDsc(address,uint256,uint256)": "infinite"
        },
        "internal": {
            "_burnDsc(uint256,address,address)": "infinite",
            "_getAccountInformation(address)": "infinite",
            "_healthFactor(address)": "infinite",
            "_redeemCollateral(address,uint256,address,address)": "infinite",
            "_revertIfHealthFactorIsBroken(address)": "infinite"
        }
    }
}