{
    "contractName": "DSCEngine",
    "abi": [
        {
            "inputs": [
                {
                    "internalType": "address[]",
                    "name": "validCollateral",
                    "type": "address[]"
                },
                {
                    "internalType": "address[]",
                    "name": "priceFeeds",
                    "type": "address[]"
                },
                {
                    "internalType": "address",
                    "name": "dscAddress",
                    "type": "address"
                }
            ],
            "stateMutability": "nonpayable",
            "type": "constructor"
        },
        {
            "inputs": [
                {
                    "internalType": "uint256",
                    "name": "healthFactor",
                    "type": "uint256"
                }
            ],
            "name": "DSCEngine__BreaksHealthFactor",
            "type": "error"
        },
        {
            "inputs": [],
            "name": "DSCEngine__InvalidCollateralProvided",
            "type": "error"
        },
        {
            "inputs": [],
            "name": "DSCEngine__MintFailed",
            "type": "error"
        },
        {
            "inputs": [],
            "name": "DSCEngine__NeedsMoreThanZero",
            "type": "error"
        },
        {
            "inputs": [],
            "name": "DSCEngine__RequireAtleastOneFormOfCollateral",
            "type": "error"
        },
        {
            "inputs": [],
            "name": "DSCEngine__TokenAddressesAndPriceFeedAddressesMustBeSameLength",
            "type": "error"
        },
        {
            "inputs": [],
            "name": "DSCEngine__TransferFailed",
            "type": "error"
        },
        {
            "inputs": [],
            "name": "ReentrancyGuardReentrantCall",
            "type": "error"
        },
        {
            "anonymous": false,
            "inputs": [
                {
                    "indexed": true,
                    "internalType": "address",
                    "name": "user",
                    "type": "address"
                },
                {
                    "indexed": true,
                    "internalType": "address",
                    "name": "token",
                    "type": "address"
                },
                {
                    "indexed": true,
                    "internalType": "uint256",
                    "name": "amount",
                    "type": "uint256"
                }
            ],
            "name": "DSCEngine__CollateralDeposited",
            "type": "event"
        },
        {
            "anonymous": false,
            "inputs": [
                {
                    "indexed": true,
                    "internalType": "address",
                    "name": "token",
                    "type": "address"
                },
                {
                    "indexed": false,
                    "internalType": "address",
                    "name": "priceFeed",
                    "type": "address"
                }
            ],
            "name": "DSCEngine__UpdatedValidCollateral",
            "type": "event"
        },
        {
            "inputs": [],
            "name": "burnDsc",
            "outputs": [],
            "stateMutability": "nonpayable",
            "type": "function"
        },
        {
            "inputs": [
                {
                    "internalType": "address",
                    "name": "tokenCollateralAddress",
                    "type": "address"
                },
                {
                    "internalType": "uint256",
                    "name": "collateralAmount",
                    "type": "uint256"
                }
            ],
            "name": "depositCollateral",
            "outputs": [],
            "stateMutability": "nonpayable",
            "type": "function"
        },
        {
            "inputs": [],
            "name": "depositCollateralAndMintDsc",
            "outputs": [],
            "stateMutability": "nonpayable",
            "type": "function"
        },
        {
            "inputs": [
                {
                    "internalType": "address",
                    "name": "user",
                    "type": "address"
                }
            ],
            "name": "getAccountCollateralValue",
            "outputs": [
                {
                    "internalType": "uint256",
                    "name": "totalCollateralValueUsd",
                    "type": "uint256"
                }
            ],
            "stateMutability": "view",
            "type": "function"
        },
        {
            "inputs": [],
            "name": "getHealthFactor",
            "outputs": [],
            "stateMutability": "view",
            "type": "function"
        },
        {
            "inputs": [
                {
                    "internalType": "address",
                    "name": "token",
                    "type": "address"
                },
                {
                    "internalType": "uint256",
                    "name": "amount",
                    "type": "uint256"
                }
            ],
            "name": "getUsdValue",
            "outputs": [
                {
                    "internalType": "uint256",
                    "name": "usdValue",
                    "type": "uint256"
                }
            ],
            "stateMutability": "view",
            "type": "function"
        },
        {
            "inputs": [],
            "name": "liquidate",
            "outputs": [],
            "stateMutability": "nonpayable",
            "type": "function"
        },
        {
            "inputs": [
                {
                    "internalType": "uint256",
                    "name": "amountDscToMint",
                    "type": "uint256"
                }
            ],
            "name": "mintDsc",
            "outputs": [],
            "stateMutability": "nonpayable",
            "type": "function"
        },
        {
            "inputs": [],
            "name": "redeemCollateral",
            "outputs": [],
            "stateMutability": "nonpayable",
            "type": "function"
        },
        {
            "inputs": [],
            "name": "redeemCollateralForDsc",
            "outputs": [],
            "stateMutability": "nonpayable",
            "type": "function"
        }
    ],
    "bytecode": "60a060405234801561000f575f80fd5b50604051610ac6380380610ac683398101604081905261002e916102e0565b60015f819055508251805f036100575760405163cb1d3f7d60e01b815260040160405180910390fd5b825184511461007957604051635ae2e09360e11b815260040160405180910390fd5b5f84511161009a5760405163b70051e360e01b815260040160405180910390fd5b5f5b84518110156101f8578381815181106100b7576100b7610354565b602002602001015160015f8784815181106100d4576100d4610354565b60200260200101516001600160a01b03166001600160a01b031681526020019081526020015f205f6101000a8154816001600160a01b0302191690836001600160a01b03160217905550600485828151811061013257610132610354565b60209081029190910181015182546001810184555f938452919092200180546001600160a01b0319166001600160a01b03909216919091179055845185908290811061018057610180610354565b60200260200101516001600160a01b03167f2d2468590a750a77d29a90c13acbc0c3019d25b05a070bc00eadf1caadf4232e8583815181106101c4576101c4610354565b60200260200101516040516101e891906001600160a01b0391909116815260200190565b60405180910390a260010161009c565b50506001600160a01b0316608052506103689050565b634e487b7160e01b5f52604160045260245ffd5b80516001600160a01b0381168114610238575f80fd5b919050565b5f82601f83011261024c575f80fd5b81516001600160401b038111156102655761026561020e565b604051600582901b90603f8201601f191681016001600160401b03811182821017156102935761029361020e565b6040529182526020818501810192908101868411156102b0575f80fd5b6020860192505b838310156102d6576102c883610222565b8152602092830192016102b7565b5095945050505050565b5f805f606084860312156102f2575f80fd5b83516001600160401b03811115610307575f80fd5b6103138682870161023d565b602086015190945090506001600160401b03811115610330575f80fd5b61033c8682870161023d565b92505061034b60408501610222565b90509250925092565b634e487b7160e01b5f52603260045260245ffd5b6080516107466103805f395f61042901526107465ff3fe608060405234801561000f575f80fd5b506004361061009b575f3560e01c8063a5f352b711610063578063a5f352b71461009f578063a65344701461009f578063c660d112146100d9578063c9b7c327146100ec578063ffde1fba1461009f575f80fd5b80631e2e15e41461009f57806328a070251461009f5780637d1a4450146100a15780639e2975541461009f578063a5d5db0c146100c6575b5f80fd5b005b6100b46100af3660046105b4565b6100ff565b60405190815260200160405180910390f35b61009f6100d43660046105d4565b610180565b6100b46100e73660046105d4565b6102f6565b61009f6100fa3660046105fc565b6103b5565b5f805b60045481101561017a575f6004828154811061012057610120610613565b5f9182526020808320909101546001600160a01b0387811684526002835260408085209190921680855292529091205490915080156101705761016382826102f6565b61016d908561063b565b93505b5050600101610102565b50919050565b80805f036101a15760405163cb1d3f7d60e01b815260040160405180910390fd5b6001600160a01b038084165f908152600160205260409020548491166101da57604051633e21b03560e11b815260040160405180910390fd5b6101e26104c9565b335f9081526002602090815260408083206001600160a01b03881684529091528120805485929061021490849061063b565b909155505060405183906001600160a01b0386169033907f23bbcaa7e76fa787630988798d121123a98b21ca858cb44b28ace423f9bb5d06905f90a46040516323b872dd60e01b8152336004820152306024820152604481018490525f906001600160a01b038616906323b872dd906064016020604051808303815f875af11580156102a2573d5f803e3d5ffd5b505050506040513d601f19601f820116820180604052508101906102c69190610654565b9050806102e657604051634dc34d1760e01b815260040160405180910390fd5b506102f060015f55565b50505050565b6001600160a01b038083165f90815260016020526040808220548151633fabe5a360e21b81529151929316918391839163feaf968c9160048082019260a0929091908290030181865afa15801561034f573d5f803e3d5ffd5b505050506040513d601f19601f82011682018060405250810190610373919061068c565b509193506402540be4009250670de0b6b3a7640000915086905061039783856106da565b6103a191906106da565b6103ab91906106f1565b9695505050505050565b80805f036103d65760405163cb1d3f7d60e01b815260040160405180910390fd5b6103de6104c9565b335f90815260036020526040812080548492906103fc90849061063b565b9091555061040b9050336104f1565b6040516340c10f1960e01b8152336004820152602481018390525f907f00000000000000000000000000000000000000000000000000000000000000006001600160a01b0316906340c10f19906044016020604051808303815f875af1158015610477573d5f803e3d5ffd5b505050506040513d601f19601f8201168201806040525081019061049b9190610654565b9050806104bb576040516330eb0fc960e01b815260040160405180910390fd5b506104c560015f55565b5050565b60025f54036104eb57604051633ee5aeb560e01b815260040160405180910390fd5b60025f55565b5f6104fb82610526565b905060018110156104c55760405163e580cc6160e01b81526004810182905260240160405180910390fd5b5f805f61053284610570565b90925090505f60646105456032846106da565b61054f91906106f1565b90508261055d6012836106da565b61056791906106f1565b95945050505050565b6001600160a01b0381165f9081526003602052604081205490610592836100ff565b9050915091565b80356001600160a01b03811681146105af575f80fd5b919050565b5f602082840312156105c4575f80fd5b6105cd82610599565b9392505050565b5f80604083850312156105e5575f80fd5b6105ee83610599565b946020939093013593505050565b5f6020828403121561060c575f80fd5b5035919050565b634e487b7160e01b5f52603260045260245ffd5b634e487b7160e01b5f52601160045260245ffd5b8082018082111561064e5761064e610627565b92915050565b5f60208284031215610664575f80fd5b815180151581146105cd575f80fd5b805169ffffffffffffffffffff811681146105af575f80fd5b5f805f805f60a086880312156106a0575f80fd5b6106a986610673565b602087015160408801516060890151929750909550935091506106ce60808701610673565b90509295509295909350565b808202811582820484141761064e5761064e610627565b5f8261070b57634e487b7160e01b5f52601260045260245ffd5b50049056fea264697066735822122047147b6e236fdeb05d67bb1acf3d593f3aecaa958745aaad9c86b7d9a23d0cd764736f6c634300081a0033",
    "sourcePath": "/Users/raman/Documents/Crypto/Foundry/FoundryF23/foundry-defi-stablecoin-f23/src/DSCEngine.sol",
    "compiler": {
        "name": "solc",
        "version": "0.8.26+commit.8a97fa7a"
    },
    "functionHashes": {
        "burnDsc()": "ffde1fba",
        "depositCollateral(address,uint256)": "a5d5db0c",
        "depositCollateralAndMintDsc()": "1e2e15e4",
        "getAccountCollateralValue(address)": "7d1a4450",
        "getHealthFactor()": "a5f352b7",
        "getUsdValue(address,uint256)": "c660d112",
        "liquidate()": "28a07025",
        "mintDsc(uint256)": "c9b7c327",
        "redeemCollateral()": "a6534470",
        "redeemCollateralForDsc()": "9e297554"
    },
    "gasEstimates": {
        "creation": {
            "codeDepositCost": "372400",
            "executionCost": "infinite",
            "totalCost": "infinite"
        },
        "external": {
            "burnDsc()": "207",
            "depositCollateral(address,uint256)": "infinite",
            "depositCollateralAndMintDsc()": "120",
            "getAccountCollateralValue(address)": "infinite",
            "getHealthFactor()": "119",
            "getUsdValue(address,uint256)": "infinite",
            "liquidate()": "142",
            "mintDsc(uint256)": "infinite",
            "redeemCollateral()": "141",
            "redeemCollateralForDsc()": "186"
        },
        "internal": {
            "_getAccountInformation(address)": "infinite",
            "_healthFactor(address)": "infinite",
            "_revertIfHealthFactorIsBroken(address)": "infinite"
        }
    }
}