{
    "contractName": "ERC20Mock",
    "abi": [
        {
            "inputs": [
                {
                    "internalType": "string",
                    "name": "name",
                    "type": "string"
                },
                {
                    "internalType": "string",
                    "name": "symbol",
                    "type": "string"
                },
                {
                    "internalType": "address",
                    "name": "initialAccount",
                    "type": "address"
                },
                {
                    "internalType": "uint256",
                    "name": "initialBalance",
                    "type": "uint256"
                }
            ],
            "stateMutability": "payable",
            "type": "constructor"
        },
        {
            "inputs": [
                {
                    "internalType": "address",
                    "name": "spender",
                    "type": "address"
                },
                {
                    "internalType": "uint256",
                    "name": "allowance",
                    "type": "uint256"
                },
                {
                    "internalType": "uint256",
                    "name": "needed",
                    "type": "uint256"
                }
            ],
            "name": "ERC20InsufficientAllowance",
            "type": "error"
        },
        {
            "inputs": [
                {
                    "internalType": "address",
                    "name": "sender",
                    "type": "address"
                },
                {
                    "internalType": "uint256",
                    "name": "balance",
                    "type": "uint256"
                },
                {
                    "internalType": "uint256",
                    "name": "needed",
                    "type": "uint256"
                }
            ],
            "name": "ERC20InsufficientBalance",
            "type": "error"
        },
        {
            "inputs": [
                {
                    "internalType": "address",
                    "name": "approver",
                    "type": "address"
                }
            ],
            "name": "ERC20InvalidApprover",
            "type": "error"
        },
        {
            "inputs": [
                {
                    "internalType": "address",
                    "name": "receiver",
                    "type": "address"
                }
            ],
            "name": "ERC20InvalidReceiver",
            "type": "error"
        },
        {
            "inputs": [
                {
                    "internalType": "address",
                    "name": "sender",
                    "type": "address"
                }
            ],
            "name": "ERC20InvalidSender",
            "type": "error"
        },
        {
            "inputs": [
                {
                    "internalType": "address",
                    "name": "spender",
                    "type": "address"
                }
            ],
            "name": "ERC20InvalidSpender",
            "type": "error"
        },
        {
            "anonymous": false,
            "inputs": [
                {
                    "indexed": true,
                    "internalType": "address",
                    "name": "owner",
                    "type": "address"
                },
                {
                    "indexed": true,
                    "internalType": "address",
                    "name": "spender",
                    "type": "address"
                },
                {
                    "indexed": false,
                    "internalType": "uint256",
                    "name": "value",
                    "type": "uint256"
                }
            ],
            "name": "Approval",
            "type": "event"
        },
        {
            "anonymous": false,
            "inputs": [
                {
                    "indexed": true,
                    "internalType": "address",
                    "name": "from",
                    "type": "address"
                },
                {
                    "indexed": true,
                    "internalType": "address",
                    "name": "to",
                    "type": "address"
                },
                {
                    "indexed": false,
                    "internalType": "uint256",
                    "name": "value",
                    "type": "uint256"
                }
            ],
            "name": "Transfer",
            "type": "event"
        },
        {
            "inputs": [
                {
                    "internalType": "address",
                    "name": "owner",
                    "type": "address"
                },
                {
                    "internalType": "address",
                    "name": "spender",
                    "type": "address"
                }
            ],
            "name": "allowance",
            "outputs": [
                {
                    "internalType": "uint256",
                    "name": "",
                    "type": "uint256"
                }
            ],
            "stateMutability": "view",
            "type": "function"
        },
        {
            "inputs": [
                {
                    "internalType": "address",
                    "name": "spender",
                    "type": "address"
                },
                {
                    "internalType": "uint256",
                    "name": "value",
                    "type": "uint256"
                }
            ],
            "name": "approve",
            "outputs": [
                {
                    "internalType": "bool",
                    "name": "",
                    "type": "bool"
                }
            ],
            "stateMutability": "nonpayable",
            "type": "function"
        },
        {
            "inputs": [
                {
                    "internalType": "address",
                    "name": "owner",
                    "type": "address"
                },
                {
                    "internalType": "address",
                    "name": "spender",
                    "type": "address"
                },
                {
                    "internalType": "uint256",
                    "name": "value",
                    "type": "uint256"
                }
            ],
            "name": "approveInternal",
            "outputs": [],
            "stateMutability": "nonpayable",
            "type": "function"
        },
        {
            "inputs": [
                {
                    "internalType": "address",
                    "name": "account",
                    "type": "address"
                }
            ],
            "name": "balanceOf",
            "outputs": [
                {
                    "internalType": "uint256",
                    "name": "",
                    "type": "uint256"
                }
            ],
            "stateMutability": "view",
            "type": "function"
        },
        {
            "inputs": [
                {
                    "internalType": "address",
                    "name": "account",
                    "type": "address"
                },
                {
                    "internalType": "uint256",
                    "name": "amount",
                    "type": "uint256"
                }
            ],
            "name": "burn",
            "outputs": [],
            "stateMutability": "nonpayable",
            "type": "function"
        },
        {
            "inputs": [],
            "name": "decimals",
            "outputs": [
                {
                    "internalType": "uint8",
                    "name": "",
                    "type": "uint8"
                }
            ],
            "stateMutability": "view",
            "type": "function"
        },
        {
            "inputs": [
                {
                    "internalType": "address",
                    "name": "account",
                    "type": "address"
                },
                {
                    "internalType": "uint256",
                    "name": "amount",
                    "type": "uint256"
                }
            ],
            "name": "mint",
            "outputs": [],
            "stateMutability": "nonpayable",
            "type": "function"
        },
        {
            "inputs": [],
            "name": "name",
            "outputs": [
                {
                    "internalType": "string",
                    "name": "",
                    "type": "string"
                }
            ],
            "stateMutability": "view",
            "type": "function"
        },
        {
            "inputs": [],
            "name": "symbol",
            "outputs": [
                {
                    "internalType": "string",
                    "name": "",
                    "type": "string"
                }
            ],
            "stateMutability": "view",
            "type": "function"
        },
        {
            "inputs": [],
            "name": "totalSupply",
            "outputs": [
                {
                    "internalType": "uint256",
                    "name": "",
                    "type": "uint256"
                }
            ],
            "stateMutability": "view",
            "type": "function"
        },
        {
            "inputs": [
                {
                    "internalType": "address",
                    "name": "to",
                    "type": "address"
                },
                {
                    "internalType": "uint256",
                    "name": "value",
                    "type": "uint256"
                }
            ],
            "name": "transfer",
            "outputs": [
                {
                    "internalType": "bool",
                    "name": "",
                    "type": "bool"
                }
            ],
            "stateMutability": "nonpayable",
            "type": "function"
        },
        {
            "inputs": [
                {
                    "internalType": "address",
                    "name": "from",
                    "type": "address"
                },
                {
                    "internalType": "address",
                    "name": "to",
                    "type": "address"
                },
                {
                    "internalType": "uint256",
                    "name": "value",
                    "type": "uint256"
                }
            ],
            "name": "transferFrom",
            "outputs": [
                {
                    "internalType": "bool",
                    "name": "",
                    "type": "bool"
                }
            ],
            "stateMutability": "nonpayable",
            "type": "function"
        },
        {
            "inputs": [
                {
                    "internalType": "address",
                    "name": "from",
                    "type": "address"
                },
                {
                    "internalType": "address",
                    "name": "to",
                    "type": "address"
                },
                {
                    "internalType": "uint256",
                    "name": "value",
                    "type": "uint256"
                }
            ],
            "name": "transferInternal",
            "outputs": [],
            "stateMutability": "nonpayable",
            "type": "function"
        }
    ],
    "bytecode": "6080604052604051610c56380380610c5683398101604081905261002291610259565b838360036100308382610368565b50600461003d8282610368565b505050610050828261005960201b60201c565b50505050610447565b6001600160a01b0382166100875760405163ec442f0560e01b81525f60048201526024015b60405180910390fd5b6100925f8383610096565b5050565b6001600160a01b0383166100c0578060025f8282546100b59190610422565b909155506101309050565b6001600160a01b0383165f90815260208190526040902054818110156101125760405163391434e360e21b81526001600160a01b0385166004820152602481018290526044810183905260640161007e565b6001600160a01b0384165f9081526020819052604090209082900390555b6001600160a01b03821661014c5760028054829003905561016a565b6001600160a01b0382165f9081526020819052604090208054820190555b816001600160a01b0316836001600160a01b03167fddf252ad1be2c89b69c2b068fc378daa952ba7f163c4a11628f55a4df523b3ef836040516101af91815260200190565b60405180910390a3505050565b634e487b7160e01b5f52604160045260245ffd5b5f82601f8301126101df575f80fd5b81516001600160401b038111156101f8576101f86101bc565b604051601f8201601f19908116603f011681016001600160401b0381118282101715610226576102266101bc565b60405281815283820160200185101561023d575f80fd5b8160208501602083015e5f918101602001919091529392505050565b5f805f806080858703121561026c575f80fd5b84516001600160401b03811115610281575f80fd5b61028d878288016101d0565b602087015190955090506001600160401b038111156102aa575f80fd5b6102b6878288016101d0565b604087015190945090506001600160a01b03811681146102d4575f80fd5b6060959095015193969295505050565b600181811c908216806102f857607f821691505b60208210810361031657634e487b7160e01b5f52602260045260245ffd5b50919050565b601f82111561036357805f5260205f20601f840160051c810160208510156103415750805b601f840160051c820191505b81811015610360575f815560010161034d565b50505b505050565b81516001600160401b03811115610381576103816101bc565b6103958161038f84546102e4565b8461031c565b6020601f8211600181146103c7575f83156103b05750848201515b5f19600385901b1c1916600184901b178455610360565b5f84815260208120601f198516915b828110156103f657878501518255602094850194600190920191016103d6565b508482101561041357868401515f19600387901b60f8161c191681555b50505050600190811b01905550565b8082018082111561044157634e487b7160e01b5f52601160045260245ffd5b92915050565b610802806104545f395ff3fe608060405234801561000f575f80fd5b50600436106100cb575f3560e01c806340c10f191161008857806395d89b411161006357806395d89b41146101a75780639dc29fac146101af578063a9059cbb146101c2578063dd62ed3e146101d5575f80fd5b806340c10f191461015957806356189cb41461016c57806370a082311461017f575f80fd5b806306fdde03146100cf578063095ea7b3146100ed57806318160ddd14610110578063222f5be01461012257806323b872dd14610137578063313ce5671461014a575b5f80fd5b6100d761020d565b6040516100e49190610672565b60405180910390f35b6101006100fb3660046106c2565b61029d565b60405190151581526020016100e4565b6002545b6040519081526020016100e4565b6101356101303660046106ea565b6102b6565b005b6101006101453660046106ea565b6102c6565b604051601281526020016100e4565b6101356101673660046106c2565b6102e9565b61013561017a3660046106ea565b6102f7565b61011461018d366004610724565b6001600160a01b03165f9081526020819052604090205490565b6100d7610302565b6101356101bd3660046106c2565b610311565b6101006101d03660046106c2565b61031b565b6101146101e3366004610744565b6001600160a01b039182165f90815260016020908152604080832093909416825291909152205490565b60606003805461021c90610775565b80601f016020809104026020016040519081016040528092919081815260200182805461024890610775565b80156102935780601f1061026a57610100808354040283529160200191610293565b820191905f5260205f20905b81548152906001019060200180831161027657829003601f168201915b5050505050905090565b5f336102aa818585610328565b60019150505b92915050565b6102c1838383610335565b505050565b5f336102d3858285610397565b6102de858585610335565b506001949350505050565b6102f38282610412565b5050565b6102c1838383610328565b60606004805461021c90610775565b6102f38282610446565b5f336102aa818585610335565b6102c1838383600161047a565b6001600160a01b03831661036357604051634b637e8f60e11b81525f60048201526024015b60405180910390fd5b6001600160a01b03821661038c5760405163ec442f0560e01b81525f600482015260240161035a565b6102c183838361054c565b6001600160a01b038381165f908152600160209081526040808320938616835292905220545f19811461040c57818110156103fe57604051637dc7a0d960e11b81526001600160a01b0384166004820152602481018290526044810183905260640161035a565b61040c84848484035f61047a565b50505050565b6001600160a01b03821661043b5760405163ec442f0560e01b81525f600482015260240161035a565b6102f35f838361054c565b6001600160a01b03821661046f57604051634b637e8f60e11b81525f600482015260240161035a565b6102f3825f8361054c565b6001600160a01b0384166104a35760405163e602df0560e01b81525f600482015260240161035a565b6001600160a01b0383166104cc57604051634a1406b160e11b81525f600482015260240161035a565b6001600160a01b038085165f908152600160209081526040808320938716835292905220829055801561040c57826001600160a01b0316846001600160a01b03167f8c5be1e5ebec7d5bd14f71427d1e84f3dd0314c0f7b2291e5b200ac8c7c3b9258460405161053e91815260200190565b60405180910390a350505050565b6001600160a01b038316610576578060025f82825461056b91906107ad565b909155506105e69050565b6001600160a01b0383165f90815260208190526040902054818110156105c85760405163391434e360e21b81526001600160a01b0385166004820152602481018290526044810183905260640161035a565b6001600160a01b0384165f9081526020819052604090209082900390555b6001600160a01b03821661060257600280548290039055610620565b6001600160a01b0382165f9081526020819052604090208054820190555b816001600160a01b0316836001600160a01b03167fddf252ad1be2c89b69c2b068fc378daa952ba7f163c4a11628f55a4df523b3ef8360405161066591815260200190565b60405180910390a3505050565b602081525f82518060208401528060208501604085015e5f604082850101526040601f19601f83011684010191505092915050565b80356001600160a01b03811681146106bd575f80fd5b919050565b5f80604083850312156106d3575f80fd5b6106dc836106a7565b946020939093013593505050565b5f805f606084860312156106fc575f80fd5b610705846106a7565b9250610713602085016106a7565b929592945050506040919091013590565b5f60208284031215610734575f80fd5b61073d826106a7565b9392505050565b5f8060408385031215610755575f80fd5b61075e836106a7565b915061076c602084016106a7565b90509250929050565b600181811c9082168061078957607f821691505b6020821081036107a757634e487b7160e01b5f52602260045260245ffd5b50919050565b808201808211156102b057634e487b7160e01b5f52601160045260245ffdfea2646970667358221220de547f15db565b90613cbde197b448cf12e864faf55cffea61129ed82f0d012f64736f6c634300081a0033",
    "sourcePath": "/Users/raman/Documents/Crypto/Foundry/FoundryF23/foundry-defi-stablecoin-f23/test/mocks/ERC20Mock.sol",
    "compiler": {
        "name": "solc",
        "version": "0.8.26+commit.8a97fa7a"
    },
    "functionHashes": {
        "allowance(address,address)": "dd62ed3e",
        "approve(address,uint256)": "095ea7b3",
        "approveInternal(address,address,uint256)": "56189cb4",
        "balanceOf(address)": "70a08231",
        "burn(address,uint256)": "9dc29fac",
        "decimals()": "313ce567",
        "mint(address,uint256)": "40c10f19",
        "name()": "06fdde03",
        "symbol()": "95d89b41",
        "totalSupply()": "18160ddd",
        "transfer(address,uint256)": "a9059cbb",
        "transferFrom(address,address,uint256)": "23b872dd",
        "transferInternal(address,address,uint256)": "222f5be0"
    },
    "gasEstimates": {
        "creation": {
            "codeDepositCost": "410000",
            "executionCost": "infinite",
            "totalCost": "infinite"
        },
        "external": {
            "allowance(address,address)": "infinite",
            "approve(address,uint256)": "24735",
            "approveInternal(address,address,uint256)": "infinite",
            "balanceOf(address)": "2604",
            "burn(address,uint256)": "infinite",
            "decimals()": "287",
            "mint(address,uint256)": "infinite",
            "name()": "infinite",
            "symbol()": "infinite",
            "totalSupply()": "2325",
            "transfer(address,uint256)": "51282",
            "transferFrom(address,address,uint256)": "infinite",
            "transferInternal(address,address,uint256)": "infinite"
        }
    }
}